{
  "address": "0x2f479AE551dc49b8a5f98B9Bc8a096fAb752b6Ac",
  "abi": [
    {
      "inputs": [
        {
          "internalType": "address",
          "name": "_token0",
          "type": "address"
        },
        {
          "internalType": "address",
          "name": "_token1",
          "type": "address"
        }
      ],
      "stateMutability": "nonpayable",
      "type": "constructor"
    },
    {
      "inputs": [
        {
          "internalType": "uint256",
          "name": "requestId",
          "type": "uint256"
        }
      ],
      "name": "ConfidentialFungibleTokenInvalidGatewayRequest",
      "type": "error"
    },
    {
      "inputs": [
        {
          "internalType": "address",
          "name": "receiver",
          "type": "address"
        }
      ],
      "name": "ConfidentialFungibleTokenInvalidReceiver",
      "type": "error"
    },
    {
      "inputs": [
        {
          "internalType": "address",
          "name": "sender",
          "type": "address"
        }
      ],
      "name": "ConfidentialFungibleTokenInvalidSender",
      "type": "error"
    },
    {
      "inputs": [
        {
          "internalType": "address",
          "name": "caller",
          "type": "address"
        }
      ],
      "name": "ConfidentialFungibleTokenUnauthorizedCaller",
      "type": "error"
    },
    {
      "inputs": [
        {
          "internalType": "address",
          "name": "holder",
          "type": "address"
        },
        {
          "internalType": "address",
          "name": "spender",
          "type": "address"
        }
      ],
      "name": "ConfidentialFungibleTokenUnauthorizedSpender",
      "type": "error"
    },
    {
      "inputs": [
        {
          "internalType": "euint64",
          "name": "amount",
          "type": "bytes32"
        },
        {
          "internalType": "address",
          "name": "user",
          "type": "address"
        }
      ],
      "name": "ConfidentialFungibleTokenUnauthorizedUseOfEncryptedAmount",
      "type": "error"
    },
    {
      "inputs": [
        {
          "internalType": "address",
          "name": "holder",
          "type": "address"
        }
      ],
      "name": "ConfidentialFungibleTokenZeroBalance",
      "type": "error"
    },
    {
      "inputs": [],
      "name": "HandlesAlreadySavedForRequestID",
      "type": "error"
    },
    {
      "inputs": [],
      "name": "InvalidKMSSignatures",
      "type": "error"
    },
    {
      "inputs": [],
      "name": "NoHandleFoundForRequestID",
      "type": "error"
    },
    {
      "inputs": [],
      "name": "UnsupportedHandleType",
      "type": "error"
    },
    {
      "anonymous": false,
      "inputs": [
        {
          "indexed": true,
          "internalType": "euint64",
          "name": "encryptedAmount",
          "type": "bytes32"
        },
        {
          "indexed": false,
          "internalType": "uint64",
          "name": "amount",
          "type": "uint64"
        }
      ],
      "name": "AmountDisclosed",
      "type": "event"
    },
    {
      "anonymous": false,
      "inputs": [
        {
          "indexed": true,
          "internalType": "address",
          "name": "from",
          "type": "address"
        },
        {
          "indexed": true,
          "internalType": "address",
          "name": "to",
          "type": "address"
        },
        {
          "indexed": true,
          "internalType": "euint64",
          "name": "amount",
          "type": "bytes32"
        }
      ],
      "name": "ConfidentialTransfer",
      "type": "event"
    },
    {
      "anonymous": false,
      "inputs": [
        {
          "indexed": true,
          "internalType": "uint256",
          "name": "requestID",
          "type": "uint256"
        }
      ],
      "name": "DecryptionFulfilled",
      "type": "event"
    },
    {
      "anonymous": false,
      "inputs": [
        {
          "indexed": true,
          "internalType": "address",
          "name": "holder",
          "type": "address"
        },
        {
          "indexed": true,
          "internalType": "address",
          "name": "operator",
          "type": "address"
        },
        {
          "indexed": false,
          "internalType": "uint48",
          "name": "until",
          "type": "uint48"
        }
      ],
      "name": "OperatorSet",
      "type": "event"
    },
    {
      "inputs": [
        {
          "internalType": "externalEuint64",
          "name": "_amount0",
          "type": "bytes32"
        },
        {
          "internalType": "bytes",
          "name": "_inputProof0",
          "type": "bytes"
        },
        {
          "internalType": "externalEuint64",
          "name": "_amount1",
          "type": "bytes32"
        },
        {
          "internalType": "bytes",
          "name": "_inputProof1",
          "type": "bytes"
        }
      ],
      "name": "addLiquidity",
      "outputs": [],
      "stateMutability": "nonpayable",
      "type": "function"
    },
    {
      "inputs": [
        {
          "internalType": "address",
          "name": "",
          "type": "address"
        }
      ],
      "name": "balanceOf",
      "outputs": [
        {
          "internalType": "euint64",
          "name": "",
          "type": "bytes32"
        }
      ],
      "stateMutability": "view",
      "type": "function"
    },
    {
      "inputs": [
        {
          "internalType": "address",
          "name": "account",
          "type": "address"
        }
      ],
      "name": "confidentialBalanceOf",
      "outputs": [
        {
          "internalType": "euint64",
          "name": "",
          "type": "bytes32"
        }
      ],
      "stateMutability": "view",
      "type": "function"
    },
    {
      "inputs": [],
      "name": "confidentialTotalSupply",
      "outputs": [
        {
          "internalType": "euint64",
          "name": "",
          "type": "bytes32"
        }
      ],
      "stateMutability": "view",
      "type": "function"
    },
    {
      "inputs": [
        {
          "internalType": "address",
          "name": "to",
          "type": "address"
        },
        {
          "internalType": "externalEuint64",
          "name": "encryptedAmount",
          "type": "bytes32"
        },
        {
          "internalType": "bytes",
          "name": "inputProof",
          "type": "bytes"
        }
      ],
      "name": "confidentialTransfer",
      "outputs": [
        {
          "internalType": "euint64",
          "name": "",
          "type": "bytes32"
        }
      ],
      "stateMutability": "nonpayable",
      "type": "function"
    },
    {
      "inputs": [
        {
          "internalType": "address",
          "name": "to",
          "type": "address"
        },
        {
          "internalType": "euint64",
          "name": "amount",
          "type": "bytes32"
        }
      ],
      "name": "confidentialTransfer",
      "outputs": [
        {
          "internalType": "euint64",
          "name": "",
          "type": "bytes32"
        }
      ],
      "stateMutability": "nonpayable",
      "type": "function"
    },
    {
      "inputs": [
        {
          "internalType": "address",
          "name": "to",
          "type": "address"
        },
        {
          "internalType": "euint64",
          "name": "amount",
          "type": "bytes32"
        },
        {
          "internalType": "bytes",
          "name": "data",
          "type": "bytes"
        }
      ],
      "name": "confidentialTransferAndCall",
      "outputs": [
        {
          "internalType": "euint64",
          "name": "transferred",
          "type": "bytes32"
        }
      ],
      "stateMutability": "nonpayable",
      "type": "function"
    },
    {
      "inputs": [
        {
          "internalType": "address",
          "name": "to",
          "type": "address"
        },
        {
          "internalType": "externalEuint64",
          "name": "encryptedAmount",
          "type": "bytes32"
        },
        {
          "internalType": "bytes",
          "name": "inputProof",
          "type": "bytes"
        },
        {
          "internalType": "bytes",
          "name": "data",
          "type": "bytes"
        }
      ],
      "name": "confidentialTransferAndCall",
      "outputs": [
        {
          "internalType": "euint64",
          "name": "transferred",
          "type": "bytes32"
        }
      ],
      "stateMutability": "nonpayable",
      "type": "function"
    },
    {
      "inputs": [
        {
          "internalType": "address",
          "name": "from",
          "type": "address"
        },
        {
          "internalType": "address",
          "name": "to",
          "type": "address"
        },
        {
          "internalType": "externalEuint64",
          "name": "encryptedAmount",
          "type": "bytes32"
        },
        {
          "internalType": "bytes",
          "name": "inputProof",
          "type": "bytes"
        }
      ],
      "name": "confidentialTransferFrom",
      "outputs": [
        {
          "internalType": "euint64",
          "name": "transferred",
          "type": "bytes32"
        }
      ],
      "stateMutability": "nonpayable",
      "type": "function"
    },
    {
      "inputs": [
        {
          "internalType": "address",
          "name": "from",
          "type": "address"
        },
        {
          "internalType": "address",
          "name": "to",
          "type": "address"
        },
        {
          "internalType": "euint64",
          "name": "amount",
          "type": "bytes32"
        }
      ],
      "name": "confidentialTransferFrom",
      "outputs": [
        {
          "internalType": "euint64",
          "name": "transferred",
          "type": "bytes32"
        }
      ],
      "stateMutability": "nonpayable",
      "type": "function"
    },
    {
      "inputs": [
        {
          "internalType": "address",
          "name": "from",
          "type": "address"
        },
        {
          "internalType": "address",
          "name": "to",
          "type": "address"
        },
        {
          "internalType": "externalEuint64",
          "name": "encryptedAmount",
          "type": "bytes32"
        },
        {
          "internalType": "bytes",
          "name": "inputProof",
          "type": "bytes"
        },
        {
          "internalType": "bytes",
          "name": "data",
          "type": "bytes"
        }
      ],
      "name": "confidentialTransferFromAndCall",
      "outputs": [
        {
          "internalType": "euint64",
          "name": "transferred",
          "type": "bytes32"
        }
      ],
      "stateMutability": "nonpayable",
      "type": "function"
    },
    {
      "inputs": [
        {
          "internalType": "address",
          "name": "from",
          "type": "address"
        },
        {
          "internalType": "address",
          "name": "to",
          "type": "address"
        },
        {
          "internalType": "euint64",
          "name": "amount",
          "type": "bytes32"
        },
        {
          "internalType": "bytes",
          "name": "data",
          "type": "bytes"
        }
      ],
      "name": "confidentialTransferFromAndCall",
      "outputs": [
        {
          "internalType": "euint64",
          "name": "transferred",
          "type": "bytes32"
        }
      ],
      "stateMutability": "nonpayable",
      "type": "function"
    },
    {
      "inputs": [],
      "name": "decimals",
      "outputs": [
        {
          "internalType": "uint8",
          "name": "",
          "type": "uint8"
        }
      ],
      "stateMutability": "view",
      "type": "function"
    },
    {
      "inputs": [
        {
          "internalType": "euint64",
          "name": "encryptedAmount",
          "type": "bytes32"
        }
      ],
      "name": "discloseEncryptedAmount",
      "outputs": [],
      "stateMutability": "nonpayable",
      "type": "function"
    },
    {
      "inputs": [
        {
          "internalType": "uint256",
          "name": "requestId",
          "type": "uint256"
        },
        {
          "internalType": "uint64",
          "name": "amount",
          "type": "uint64"
        },
        {
          "internalType": "bytes[]",
          "name": "signatures",
          "type": "bytes[]"
        }
      ],
      "name": "finalizeDiscloseEncryptedAmount",
      "outputs": [],
      "stateMutability": "nonpayable",
      "type": "function"
    },
    {
      "inputs": [
        {
          "internalType": "address",
          "name": "holder",
          "type": "address"
        },
        {
          "internalType": "address",
          "name": "spender",
          "type": "address"
        }
      ],
      "name": "isOperator",
      "outputs": [
        {
          "internalType": "bool",
          "name": "",
          "type": "bool"
        }
      ],
      "stateMutability": "view",
      "type": "function"
    },
    {
      "inputs": [],
      "name": "name",
      "outputs": [
        {
          "internalType": "string",
          "name": "",
          "type": "string"
        }
      ],
      "stateMutability": "view",
      "type": "function"
    },
    {
      "inputs": [
        {
          "internalType": "externalEuint64",
          "name": "_shares",
          "type": "bytes32"
        },
        {
          "internalType": "bytes",
          "name": "_inputProof",
          "type": "bytes"
        },
        {
          "internalType": "externalEuint64",
          "name": "_amount0Out",
          "type": "bytes32"
        },
        {
          "internalType": "bytes",
          "name": "_inputProof0",
          "type": "bytes"
        },
        {
          "internalType": "externalEuint64",
          "name": "_amount1Out",
          "type": "bytes32"
        },
        {
          "internalType": "bytes",
          "name": "_inputProof1",
          "type": "bytes"
        }
      ],
      "name": "removeLiquidity",
      "outputs": [],
      "stateMutability": "nonpayable",
      "type": "function"
    },
    {
      "inputs": [],
      "name": "reserve0",
      "outputs": [
        {
          "internalType": "euint64",
          "name": "",
          "type": "bytes32"
        }
      ],
      "stateMutability": "view",
      "type": "function"
    },
    {
      "inputs": [],
      "name": "reserve1",
      "outputs": [
        {
          "internalType": "euint64",
          "name": "",
          "type": "bytes32"
        }
      ],
      "stateMutability": "view",
      "type": "function"
    },
    {
      "inputs": [
        {
          "internalType": "address",
          "name": "operator",
          "type": "address"
        },
        {
          "internalType": "uint48",
          "name": "until",
          "type": "uint48"
        }
      ],
      "name": "setOperator",
      "outputs": [],
      "stateMutability": "nonpayable",
      "type": "function"
    },
    {
      "inputs": [
        {
          "internalType": "externalEuint64",
          "name": "_amount0",
          "type": "bytes32"
        },
        {
          "internalType": "bytes",
          "name": "_inputProof0",
          "type": "bytes"
        },
        {
          "internalType": "externalEuint64",
          "name": "_amount1",
          "type": "bytes32"
        },
        {
          "internalType": "bytes",
          "name": "_inputProof1",
          "type": "bytes"
        }
      ],
      "name": "swap",
      "outputs": [],
      "stateMutability": "nonpayable",
      "type": "function"
    },
    {
      "inputs": [],
      "name": "symbol",
      "outputs": [
        {
          "internalType": "string",
          "name": "",
          "type": "string"
        }
      ],
      "stateMutability": "view",
      "type": "function"
    },
    {
      "inputs": [],
      "name": "token0",
      "outputs": [
        {
          "internalType": "contract IConfidentialFungibleToken",
          "name": "",
          "type": "address"
        }
      ],
      "stateMutability": "view",
      "type": "function"
    },
    {
      "inputs": [],
      "name": "token1",
      "outputs": [
        {
          "internalType": "contract IConfidentialFungibleToken",
          "name": "",
          "type": "address"
        }
      ],
      "stateMutability": "view",
      "type": "function"
    },
    {
      "inputs": [],
      "name": "tokenURI",
      "outputs": [
        {
          "internalType": "string",
          "name": "",
          "type": "string"
        }
      ],
      "stateMutability": "view",
      "type": "function"
    },
    {
      "inputs": [],
      "name": "totalSupply",
      "outputs": [
        {
          "internalType": "uint256",
          "name": "",
          "type": "uint256"
        }
      ],
      "stateMutability": "view",
      "type": "function"
    }
  ],
  "transactionHash": "0xad57b8cb597b03eb2a67e2e2a1abb00b010bbea5740bb9950b451e4908f154f7",
  "args": [
    "0x16761d1eE4F39139593e0706E00D103f2435a0eb",
    "0xE86a8F848708D2228e363F3bcec343084DEB9ebc"
  ],
  "numDeployments": 1,
  "solcInputHash": "4f3746422a8cb1a1db11137b35393cb7",
  "bytecode": "0x60c060405234801561000f575f5ffd5b506040516134f83803806134f883398101604081905261002e9161028a565b60408051808201825260078082526646484543534d4d60c81b602080840182905284518086018652838152808201839052855180870190965292855284015290916101e961010d604080516080810182525f808252602082018190529181018290526060810191909152506040805160808101825273687820221192c5b662b25367f70076a37bc79b6c815273848b0066793bcc60346da1f49049357399b8d5956020820152731364cbbf2cdf5032c47d8226a6f6fbd2afcdacac9181019190915273bc91f3dad1a5f19f8390c400196e58073b6a0bc4606082015290565b80517fed8d60e34876f751cc8b014c560745351147d9de11b9347c854e881b128ea60080546001600160a01b03199081166001600160a01b039384161790915560208301517fed8d60e34876f751cc8b014c560745351147d9de11b9347c854e881b128ea6018054831691841691909117905560408301517fed8d60e34876f751cc8b014c560745351147d9de11b9347c854e881b128ea6028054831691841691909117905560608301517fed8d60e34876f751cc8b014c560745351147d9de11b9347c854e881b128ea6038054909216921691909117905550565b7f5ea69329017273582817d320489fbd94f775580e90c092699ca6f3d12fdf7d0080546001600160a01b03191673a02cda4ca3a71d7c46997716f4283aa851c28812179055600461023a8482610353565b5060056102478382610353565b5060066102548282610353565b5050506001600160a01b03928316608052501660a05261040d565b80516001600160a01b0381168114610285575f5ffd5b919050565b5f5f6040838503121561029b575f5ffd5b6102a48361026f565b91506102b26020840161026f565b90509250929050565b634e487b7160e01b5f52604160045260245ffd5b600181811c908216806102e357607f821691505b60208210810361030157634e487b7160e01b5f52602260045260245ffd5b50919050565b601f82111561034e57805f5260205f20601f840160051c8101602085101561032c5750805b601f840160051c820191505b8181101561034b575f8155600101610338565b50505b505050565b81516001600160401b0381111561036c5761036c6102bb565b6103808161037a84546102cf565b84610307565b6020601f8211600181146103b2575f831561039b5750848201515b5f19600385901b1c1916600184901b17845561034b565b5f84815260208120601f198516915b828110156103e157878501518255602094850194600190920191016103c1565b50848210156103fe57868401515f19600387901b60f8161c191681555b50505050600190811b01905550565b60805160a05161304c6104ac5f395f81816103900152818161059c0152818161067e0152818161077701528181610a7201528181610b5001528181610d5101528181610e2f01528181610e720152610f1301525f81816101d70152818161057101528181610653015281816106e801528181610a4701528181610ab901528181610d2601528181610d9a01528181610f9a0152610fdd015261304c5ff3fe608060405234801561000f575f5ffd5b50600436106101b0575f3560e01c80635bebed7e116100f3578063c535803c11610093578063d4febb961161006e578063d4febb96146103b2578063de642119146103c5578063e064b9bb146103d8578063eb3155b5146103eb575f5ffd5b8063c535803c14610365578063c7b8a75e14610378578063d21220a71461038b575f5ffd5b80637279e264116100ce5780637279e2641461031457806395d89b4114610327578063b250917e1461032f578063b6363cf214610342575f5ffd5b80635bebed7e146102cf5780635fd4dc03146102e257806370a08231146102f5575f5ffd5b8063344ff1011161015e578063443cb4bc11610139578063443cb4bc146102a2578063537d3c50146102ab57806354095227146102be5780635a76f25e146102c6575f5ffd5b8063344ff1011461025f57806334c45743146102875780633c130d901461029a575f5ffd5b80632747759c1161018e5780632747759c146102285780632fb74e621461023d578063313ce56714610250575f5ffd5b806306fdde03146101b45780630dfe1681146101d257806318160ddd14610211575b5f5ffd5b6101bc6103fe565b6040516101c99190612768565b60405180910390f35b6101f97f000000000000000000000000000000000000000000000000000000000000000081565b6040516001600160a01b0390911681526020016101c9565b61021a60095481565b6040519081526020016101c9565b61023b6102363660046127b8565b61048e565b005b61021a61024b36600461288f565b6107fc565b604051600681526020016101c9565b61021a61026d3660046128e5565b6001600160a01b03165f9081526020819052604090205490565b61021a6102953660046128fe565b61084f565b6101bc6108f8565b61021a60075481565b61021a6102b936600461288f565b610907565b60035461021a565b61021a60085481565b61021a6102dd366004612997565b610969565b61023b6102f03660046129bf565b6109bd565b61021a6103033660046128e5565b600a6020525f908152604090205481565b61023b610322366004612a86565b610c00565b6101bc610c8d565b61023b61033d3660046129bf565b610c9c565b610355610350366004612bd7565b61109c565b60405190151581526020016101c9565b61023b610373366004612bff565b6110ee565b61021a610386366004612c16565b6111a4565b6101f97f000000000000000000000000000000000000000000000000000000000000000081565b61023b6103c0366004612c80565b611247565b61021a6103d3366004612cbf565b611256565b61021a6103e6366004612c16565b6112b2565b61021a6103f9366004612d2a565b611337565b60606004805461040d90612d64565b80601f016020809104026020016040519081016040528092919081815260200182805461043990612d64565b80156104845780601f1061045b57610100808354040283529160200191610484565b820191905f5260205f20905b81548152906001019060200180831161046757829003601f168201915b5050505050905090565b5f6104ce8a8a8a8080601f0160208091040260200160405190810160405280939291908181526020018383808284375f920191909152506113d692505050565b90506104da81306113e3565b506104e533826113f5565b90505f6105278888888080601f0160208091040260200160405190810160405280939291908181526020018383808284375f920191909152506113d692505050565b90505f6105698686868080601f0160208091040260200160405190810160405280939291908181526020018383808284375f920191909152506113d692505050565b9050610595827f00000000000000000000000000000000000000000000000000000000000000006113e3565b506105c0817f00000000000000000000000000000000000000000000000000000000000000006113e3565b505f6105d6846105d08585611436565b90611464565b90505f6105f85f6105f28660075461149290919063ffffffff16565b906114c0565b90505f6106145f6105f28660085461149290919063ffffffff16565b90505f61063361062e8361062887876114e8565b906114e8565b611516565b905061063f8682611522565b955061064b8582611522565b9450610677867f00000000000000000000000000000000000000000000000000000000000000006113e3565b506106a2857f00000000000000000000000000000000000000000000000000000000000000006113e3565b506007546106cc906106b49088611492565b6008546106c19088611492565b600791909155600855565b604051632df5f6bf60e11b8152336004820152602481018790527f00000000000000000000000000000000000000000000000000000000000000006001600160a01b031690635bebed7e906044016020604051808303815f875af1158015610736573d5f5f3e3d5ffd5b505050506040513d601f19601f8201168201806040525081019061075a9190612d9c565b50604051632df5f6bf60e11b8152336004820152602481018690527f00000000000000000000000000000000000000000000000000000000000000006001600160a01b031690635bebed7e906044016020604051808303815f875af11580156107c5573d5f5f3e3d5ffd5b505050506040513d601f19601f820116820180604052508101906107e99190612d9c565b5050505050505050505050505050505050565b5f61084633866108418787878080601f0160208091040260200160405190810160405280939291908181526020018383808284375f920191909152506113d692505050565b611550565b95945050505050565b5f61085a883361109c565b8833909161089357604051631ae7729b60e11b81526001600160a01b039283166004820152911660248201526044015b60405180910390fd5b50506108e088886108d98989898080601f0160208091040260200160405190810160405280939291908181526020018383808284375f920191909152506113d692505050565b86866115d0565b90506108ec81336113e3565b50979650505050505050565b60606006805461040d90612d64565b5f6109128433611620565b843390916109455760405163118f6e5360e31b815260048101929092526001600160a01b0316602482015260440161088a565b505061095433868686866115d0565b905061096081336113e3565b50949350505050565b5f6109748233611620565b823390916109a75760405163118f6e5360e31b815260048101929092526001600160a01b0316602482015260440161088a565b50506109b4338484611550565b90505b92915050565b5f6109fd8787878080601f0160208091040260200160405190810160405280939291908181526020018383808284375f920191909152506113d692505050565b90505f610a3f8585858080601f0160208091040260200160405190810160405280939291908181526020018383808284375f920191909152506113d692505050565b9050610a6b827f00000000000000000000000000000000000000000000000000000000000000006113e3565b50610a96817f00000000000000000000000000000000000000000000000000000000000000006113e3565b5060405163eb3155b560e01b8152336004820152306024820152604481018390527f00000000000000000000000000000000000000000000000000000000000000006001600160a01b03169063eb3155b5906064016020604051808303815f875af1158015610b07573d5f5f3e3d5ffd5b505050506040513d601f19601f82011682018060405250810190610b2b9190612d9c565b60405163eb3155b560e01b8152336004820152306024820152604481018390529092507f00000000000000000000000000000000000000000000000000000000000000006001600160a01b03169063eb3155b5906064016020604051808303815f875af1158015610b9e573d5f5f3e3d5ffd5b505050506040513d601f19601f82011682018060405250810190610bc29190612d9c565b9050610bd733610bd28484611436565b61162b565b50600754610bf690610be99084611436565b6008546106c19084611436565b5050505050505050565b610c0a838261166c565b5f838152600260205260409020548381610c3a57604051630ab5f57d60e01b815260040161088a91815260200190565b5060405167ffffffffffffffff8416815281907f83bbbc07896439e5d950a6cead04cbc676180af7a61cecf43f5296475057f5719060200160405180910390a25050505f90815260026020526040812055565b60606005805461040d90612d64565b5f610cdc8787878080601f0160208091040260200160405190810160405280939291908181526020018383808284375f920191909152506113d692505050565b90505f610d1e8585858080601f0160208091040260200160405190810160405280939291908181526020018383808284375f920191909152506113d692505050565b9050610d4a827f00000000000000000000000000000000000000000000000000000000000000006113e3565b50610d75817f00000000000000000000000000000000000000000000000000000000000000006113e3565b5060405163eb3155b560e01b8152336004820152306024820152604481018390525f907f00000000000000000000000000000000000000000000000000000000000000006001600160a01b03169063eb3155b5906064016020604051808303815f875af1158015610de8573d5f5f3e3d5ffd5b505050506040513d601f19601f82011682018060405250810190610e0c9190612d9c565b90505f610e276103e8610e21846103e56116d3565b906116fb565b9050610e53817f00000000000000000000000000000000000000000000000000000000000000006113e3565b50604051632df5f6bf60e11b8152336004820152602481018290525f907f00000000000000000000000000000000000000000000000000000000000000006001600160a01b031690635bebed7e906044016020604051808303815f875af1158015610ec0573d5f5f3e3d5ffd5b505050506040513d601f19601f82011682018060405250810190610ee49190612d9c565b60405163eb3155b560e01b8152336004820152306024820152604481018690529091505f906001600160a01b037f0000000000000000000000000000000000000000000000000000000000000000169063eb3155b5906064016020604051808303815f875af1158015610f59573d5f5f3e3d5ffd5b505050506040513d601f19601f82011682018060405250810190610f7d9190612d9c565b90505f610f926103e8610e21846103e56116d3565b9050610fbe817f00000000000000000000000000000000000000000000000000000000000000006113e3565b50604051632df5f6bf60e11b8152336004820152602481018290525f907f00000000000000000000000000000000000000000000000000000000000000006001600160a01b031690635bebed7e906044016020604051808303815f875af115801561102b573d5f5f3e3d5ffd5b505050506040513d601f19601f8201168201806040525081019061104f9190612d9c565b905061108c6110738261106d8960075461143690919063ffffffff16565b90611492565b6106c18661106d8760085461143690919063ffffffff16565b5050505050505050505050505050565b5f816001600160a01b0316836001600160a01b031614806109b45750506001600160a01b039182165f90815260016020908152604080832093909416825291909152205465ffffffffffff1642111590565b6110f88133611620565b801561110957506111098130611620565b8133909161113c5760405163118f6e5360e31b815260048101929092526001600160a01b0316602482015260440161088a565b50506040805160018082528183019092525f916020808301908036833701905050905081815f8151811061117257611172612db3565b60209081029190910101525f61118f82631c9e789960e21b611721565b5f908152600260205260409020929092555050565b5f6111af8433611620565b843390916111e25760405163118f6e5360e31b815260048101929092526001600160a01b0316602482015260440161088a565b50506111ee863361109c565b8633909161122257604051631ae7729b60e11b81526001600160a01b0392831660048201529116602482015260440161088a565b505061123186868686866115d0565b905061123d81336113e3565b5095945050505050565b61125233838361172d565b5050565b5f61129b33886108d98989898080601f0160208091040260200160405190810160405280939291908181526020018383808284375f920191909152506113d692505050565b90506112a781336113e3565b509695505050505050565b5f6112bd863361109c565b863390916112f157604051631ae7729b60e11b81526001600160a01b0392831660048201529116602482015260440161088a565b505061123186866108418787878080601f0160208091040260200160405190810160405280939291908181526020018383808284375f920191909152506113d692505050565b5f6113428233611620565b823390916113755760405163118f6e5360e31b815260048101929092526001600160a01b0316602482015260440161088a565b5050611381843361109c565b843390916113b557604051631ae7729b60e11b81526001600160a01b0392831660048201529116602482015260440161088a565b50506113c2848484611550565b90506113ce81336113e3565b509392505050565b5f6109b4838360056117a4565b5f6113ee838361189e565b5090919050565b5f806001600160a01b03841661142a57604051631a9bbf8b60e11b81526001600160a01b03909116600482015260240161088a565b506109b4835f84611912565b5f82611448576114455f611aea565b92505b81611459576114565f611aea565b91505b6109b483835f611b00565b5f82611476576114735f611aea565b92505b81611487576114845f611aea565b91505b6109b483835f611bbd565b5f826114a4576114a15f611aea565b92505b816114b5576114b25f611aea565b91505b6109b483835f611c34565b5f826114d2576114cf5f611aea565b92505b6109b48367ffffffffffffffff84166001611cab565b5f826114fa576114f75f611d22565b92505b8161150b576115085f611d22565b91505b6109b483835f611d3d565b5f6109b7826005611db4565b5f82611534576115315f611aea565b92505b81611545576115425f611aea565b91505b6109b483835f611e4b565b5f806001600160a01b03851661158557604051631a9bbf8b60e11b81526001600160a01b03909116600482015260240161088a565b505f6001600160a01b0384166115ba57604051636e41946d60e11b81526001600160a01b03909116600482015260240161088a565b506115c6848484611912565b90505b9392505050565b5f5f6115dd878787611550565b90506115ff6115f0338989858989611ec2565b826115fa5f611aea565b611fc4565b915061161586886116108486611492565b611912565b505095945050505050565b5f6109b48383611fd0565b5f806001600160a01b03841661166057604051636e41946d60e11b81526001600160a01b03909116600482015260240161088a565b506109b45f8484611912565b5f61167683612054565b90505f6116838284612125565b9050806116a35760405163cf6c44e960e01b815260040160405180910390fd5b60405184907f1af0453083661051f6e56e5c070792320652e612154bf9af8637bb1e7655b99d905f90a250505050565b5f826116e5576116e25f611aea565b92505b6109b48367ffffffffffffffff84166001611e4b565b5f8261170d5761170a5f611aea565b92505b6109b48367ffffffffffffffff8416612222565b5f6109b483835f6122bf565b6001600160a01b038381165f81815260016020908152604080832094871680845294825291829020805465ffffffffffff191665ffffffffffff871690811790915591519182527f921a218a75d18e8ec5704851e6b234a85725b21a2521ce889622c35dedc1fa12910160405180910390a3505050565b5f5160206130205f395f51905f525460405163196d0b9b60e01b81525f915f5160206130005f395f51905f52916001600160a01b039091169063196d0b9b906117f7908890339089908990600401612dfb565b6020604051808303815f875af1158015611813573d5f5f3e3d5ffd5b505050506040513d601f19601f820116820180604052508101906118379190612d9c565b8154604051630f8e573b60e21b8152600481018390523360248201529193506001600160a01b031690633e395cec906044015f604051808303815f87803b158015611880575f5ffd5b505af1158015611892573d5f5f3e3d5ffd5b50505050509392505050565b5f5160206130005f395f51905f528054604051630f8e573b60e21b8152600481018590526001600160a01b03848116602483015290911690633e395cec906044015b5f604051808303815f87803b1580156118f7575f5ffd5b505af1158015611909573d5f5f3e3d5ffd5b50505050505050565b5f80806001600160a01b0386166119485761192f600354856123f8565b909250905061193d81612442565b5060038190556119cc565b6001600160a01b0386165f90815260208190526040902054868161198b57604051636b8830d760e11b81526001600160a01b03909116600482015260240161088a565b506119968186612451565b90935091506119a482612442565b506119af828861247c565b50506001600160a01b0386165f9081526020819052604090208190555b6119da82856115fa5f611aea565b92506001600160a01b038516611a0c576119f660035484611492565b9050611a0181612442565b506003819055611a60565b6001600160a01b0385165f90815260208190526040902054611a2e9084611436565b9050611a3981612442565b50611a44818661247c565b506001600160a01b0385165f9081526020819052604090208190555b6001600160a01b03861615611a7b57611a79838761247c565b505b6001600160a01b03851615611a9657611a94838661247c565b505b611a9f83612442565b5082856001600160a01b0316876001600160a01b03167f67500e8d0ed826d2194f514dd0d8124f35648ab6e3fb5e6ed867134cffe661e960405160405180910390a450509392505050565b5f6109b78267ffffffffffffffff166005612487565b5f5f8215611b135750600160f81b611b16565b505f5b5f5160206130205f395f51905f525460405163022f65e760e31b815260048101879052602481018690526001600160f81b0319831660448201525f5160206130005f395f51905f52916001600160a01b03169063117b2f38906064015b6020604051808303815f875af1158015611b8f573d5f5f3e3d5ffd5b505050506040513d601f19601f82011682018060405250810190611bb39190612d9c565b9695505050505050565b5f5f8215611bd05750600160f81b611bd3565b505f5b5f5160206130205f395f51905f525460405163f77f3f1d60e01b815260048101879052602481018690526001600160f81b0319831660448201525f5160206130005f395f51905f52916001600160a01b03169063f77f3f1d90606401611b73565b5f5f8215611c475750600160f81b611c4a565b505f5b5f5160206130205f395f51905f52546040516303056db360e31b815260048101879052602481018690526001600160f81b0319831660448201525f5160206130005f395f51905f52916001600160a01b03169063182b6d9890606401611b73565b5f5f8215611cbe5750600160f81b611cc1565b505f5b5f5160206130205f395f51905f5254604051631391547f60e01b815260048101879052602481018690526001600160f81b0319831660448201525f5160206130005f395f51905f52916001600160a01b031690631391547f90606401611b73565b5f6109b782611d31575f611d34565b60015b60ff165f612487565b5f5f8215611d505750600160f81b611d53565b505f5b5f5160206130205f395f51905f525460405163d99882d560e01b815260048101879052602481018690526001600160f81b0319831660448201525f5160206130005f395f51905f52916001600160a01b03169063d99882d590606401611b73565b5f5160206130205f395f51905f52546040516307227b9160e21b81525f915f5160206130005f395f51905f52916001600160a01b0390911690631c89ee4490611e039087908790600401612e31565b6020604051808303815f875af1158015611e1f573d5f5f3e3d5ffd5b505050506040513d601f19601f82011682018060405250810190611e439190612d9c565b949350505050565b5f5f8215611e5e5750600160f81b611e61565b505f5b5f5160206130205f395f51905f5254604051630afe14ad60e31b815260048101879052602481018690526001600160f81b0319831660448201525f5160206130005f395f51905f52916001600160a01b0316906357f0a56890606401611b73565b5f6001600160a01b0385163b15611faf576040516346083bfd60e01b81526001600160a01b038616906346083bfd90611f07908a908a90899089908990600401612e45565b6020604051808303815f875af1925050508015611f41575060408051601f3d908101601f19168201909252611f3e91810190612d9c565b60015b611fa8573d808015611f6e576040519150601f19603f3d011682016040523d82523d5f602084013e611f73565b606091505b5080515f03611fa057604051636e41946d60e11b81526001600160a01b038716600482015260240161088a565b805181602001fd5b9050611bb3565b611fb96001611d22565b979650505050505050565b5f6115c68484846124d6565b5f805f5160206130005f395f51905f5280546040516382027b6d60e01b8152600481018790526001600160a01b0386811660248301529293509116906382027b6d90604401602060405180830381865afa158015612030573d5f5f3e3d5ffd5b505050506040513d601f19601f82011682018060405250810190611e439190612e9a565b5f8181527f5ea69329017273582817d320489fbd94f775580e90c092699ca6f3d12fdf7d0260205260408120546060917f5ea69329017273582817d320489fbd94f775580e90c092699ca6f3d12fdf7d009190036120c55760405163d66ca67560e01b815260040160405180910390fd5b5f8381526002820160209081526040918290208054835181840281018401909452808452909183018282801561211857602002820191905f5260205f20905b815481526020019060010190808311612104575b5050505050915050919050565b5f60248161213285612532565b90505f8167ffffffffffffffff81111561214e5761214e612a41565b6040519080825280601f01601f191660200182016040528015612178576020820181803683370190505b509050818360208301377fed8d60e34876f751cc8b014c560745351147d9de11b9347c854e881b128ea60254604051632c027b1360e21b81525f5160206130005f395f51905f52916001600160a01b03169063b009ec4c906121e2908a9086908b90600401612ef3565b6020604051808303815f875af11580156121fe573d5f5f3e3d5ffd5b505050506040513d601f19601f82011682018060405250810190611fb99190612e9a565b5f5160206130205f395f51905f5254604051635a53accb60e01b81526004810184905260248101839052600160f81b604482018190525f9290915f5160206130005f395f51905f52916001600160a01b031690635a53accb906064015b6020604051808303815f875af115801561229b573d5f5f3e3d5ffd5b505050506040513d601f19601f820116820180604052508101906108469190612d9c565b7f5ea69329017273582817d320489fbd94f775580e90c092699ca6f3d12fdf7d01545f5160206130005f395f51905f528054604051637d6e912360e11b81527f5ea69329017273582817d320489fbd94f775580e90c092699ca6f3d12fdf7d0092916001600160a01b03169063fadd22469061233f908990600401612f7d565b5f604051808303815f87803b158015612356575f5ffd5b505af1158015612368573d5f5f3e3d5ffd5b50508354604051633263b83b60e01b81526001600160a01b039091169250633263b83b915086906123a19087908b908b90600401612f8f565b5f604051808303818588803b1580156123b8575f5ffd5b505af11580156123ca573d5f5f3e3d5ffd5b50505050506123d983876125df565b600182018054905f6123ea83612fd4565b919050555050509392505050565b5f8083612413576124096001611d22565b915082905061243b565b5f61241e8585611436565b905061242a8186612672565b9250612437838287611fc4565b9150505b9250929050565b5f61244d82306126a0565b5090565b5f5f61245d8484612672565b91506124738261246d8686611492565b86611fc4565b90509250929050565b5f6113ee83836126a0565b5f5160206130205f395f51905f5254604051639cd07acb60e01b81525f915f5160206130005f395f51905f52916001600160a01b0390911690639cd07acb90611e039087908790600401612e31565b5f5160206130205f395f51905f5254604051637702dcff60e01b81526004810185905260248101849052604481018390525f915f5160206130005f395f51905f52916001600160a01b0390911690637702dcff9060640161227f565b80515f9081805b828110156125d3575f85828151811061255457612554612db3565b6020026020010151601e6020811061256e5761256e612db3565b1a605381111561258057612580612dc7565b9050600981605381111561259657612596612dc7565b60ff1610156125b1576125aa602084612fec565b92506125ca565b60405163ce54a8d160e01b815260040160405180910390fd5b50600101612539565b50611e43602082612fec565b5f8281527f5ea69329017273582817d320489fbd94f775580e90c092699ca6f3d12fdf7d0260205260409020547f5ea69329017273582817d320489fbd94f775580e90c092699ca6f3d12fdf7d00901561264c57604051633f06d22b60e01b815260040160405180910390fd5b5f8381526002820160209081526040909120835161266c928501906126e6565b50505050565b5f82612684576126815f611aea565b92505b81612695576126925f611aea565b91505b6109b483835f611cab565b5f5160206130005f395f51905f528054604051635ca4b5b160e11b8152600481018590526001600160a01b0384811660248301529091169063b9496b62906044016118e0565b828054828255905f5260205f2090810192821561271f579160200282015b8281111561271f578251825591602001919060010190612704565b5061244d9291505b8082111561244d575f8155600101612727565b5f81518084528060208401602086015e5f602082860101526020601f19601f83011685010191505092915050565b602081525f6109b4602083018461273a565b5f5f83601f84011261278a575f5ffd5b50813567ffffffffffffffff8111156127a1575f5ffd5b60208301915083602082850101111561243b575f5ffd5b5f5f5f5f5f5f5f5f5f60c08a8c0312156127d0575f5ffd5b8935985060208a013567ffffffffffffffff8111156127ed575f5ffd5b6127f98c828d0161277a565b90995097505060408a0135955060608a013567ffffffffffffffff81111561281f575f5ffd5b61282b8c828d0161277a565b90965094505060808a0135925060a08a013567ffffffffffffffff811115612851575f5ffd5b61285d8c828d0161277a565b915080935050809150509295985092959850929598565b80356001600160a01b038116811461288a575f5ffd5b919050565b5f5f5f5f606085870312156128a2575f5ffd5b6128ab85612874565b935060208501359250604085013567ffffffffffffffff8111156128cd575f5ffd5b6128d98782880161277a565b95989497509550505050565b5f602082840312156128f5575f5ffd5b6109b482612874565b5f5f5f5f5f5f5f60a0888a031215612914575f5ffd5b61291d88612874565b965061292b60208901612874565b955060408801359450606088013567ffffffffffffffff81111561294d575f5ffd5b6129598a828b0161277a565b909550935050608088013567ffffffffffffffff811115612978575f5ffd5b6129848a828b0161277a565b989b979a50959850939692959293505050565b5f5f604083850312156129a8575f5ffd5b6129b183612874565b946020939093013593505050565b5f5f5f5f5f5f608087890312156129d4575f5ffd5b86359550602087013567ffffffffffffffff8111156129f1575f5ffd5b6129fd89828a0161277a565b90965094505060408701359250606087013567ffffffffffffffff811115612a23575f5ffd5b612a2f89828a0161277a565b979a9699509497509295939492505050565b634e487b7160e01b5f52604160045260245ffd5b604051601f8201601f1916810167ffffffffffffffff81118282101715612a7e57612a7e612a41565b604052919050565b5f5f5f60608486031215612a98575f5ffd5b83359250602084013567ffffffffffffffff81168114612ab6575f5ffd5b9150604084013567ffffffffffffffff811115612ad1575f5ffd5b8401601f81018613612ae1575f5ffd5b803567ffffffffffffffff811115612afb57612afb612a41565b8060051b612b0b60208201612a55565b91825260208184018101929081019089841115612b26575f5ffd5b6020850192505b83831015612bc857823567ffffffffffffffff811115612b4b575f5ffd5b8501603f81018b13612b5b575f5ffd5b602081013567ffffffffffffffff811115612b7857612b78612a41565b612b8b601f8201601f1916602001612a55565b8181526040838301018d1015612b9f575f5ffd5b816040840160208301375f60208383010152808552505050602082019150602083019250612b2d565b80955050505050509250925092565b5f5f60408385031215612be8575f5ffd5b612bf183612874565b915061247360208401612874565b5f60208284031215612c0f575f5ffd5b5035919050565b5f5f5f5f5f60808688031215612c2a575f5ffd5b612c3386612874565b9450612c4160208701612874565b935060408601359250606086013567ffffffffffffffff811115612c63575f5ffd5b612c6f8882890161277a565b969995985093965092949392505050565b5f5f60408385031215612c91575f5ffd5b612c9a83612874565b9150602083013565ffffffffffff81168114612cb4575f5ffd5b809150509250929050565b5f5f5f5f5f5f60808789031215612cd4575f5ffd5b612cdd87612874565b955060208701359450604087013567ffffffffffffffff811115612cff575f5ffd5b612d0b89828a0161277a565b909550935050606087013567ffffffffffffffff811115612a23575f5ffd5b5f5f5f60608486031215612d3c575f5ffd5b612d4584612874565b9250612d5360208501612874565b929592945050506040919091013590565b600181811c90821680612d7857607f821691505b602082108103612d9657634e487b7160e01b5f52602260045260245ffd5b50919050565b5f60208284031215612dac575f5ffd5b5051919050565b634e487b7160e01b5f52603260045260245ffd5b634e487b7160e01b5f52602160045260245ffd5b60548110612df757634e487b7160e01b5f52602160045260245ffd5b9052565b8481526001600160a01b0384166020820152608060408201525f612e22608083018561273a565b90506108466060830184612ddb565b828152604081016115c96020830184612ddb565b6001600160a01b03861681526001600160a01b038516602082015283604082015260806060820152816080820152818360a08301375f81830160a090810191909152601f909201601f19160101949350505050565b5f60208284031215612eaa575f5ffd5b815180151581146115c9575f5ffd5b5f8151808452602084019350602083015f5b82811015612ee9578151865260209586019590910190600101612ecb565b5093949350505050565b606081525f612f056060830186612eb9565b8281036020840152612f17818661273a565b9050828103604084015280845180835260208301915060208160051b840101602087015f5b83811015612f6e57601f19868403018552612f5883835161273a565b6020958601959093509190910190600101612f3c565b50909998505050505050505050565b602081525f6109b46020830184612eb9565b838152606060208201525f612fa76060830185612eb9565b905063ffffffff60e01b83166040830152949350505050565b634e487b7160e01b5f52601160045260245ffd5b5f60018201612fe557612fe5612fc0565b5060010190565b808201808211156109b7576109b7612fc056feed8d60e34876f751cc8b014c560745351147d9de11b9347c854e881b128ea600ed8d60e34876f751cc8b014c560745351147d9de11b9347c854e881b128ea601a164736f6c634300081b000a",
  "devdoc": {
    "errors": {
      "ConfidentialFungibleTokenInvalidGatewayRequest(uint256)": [
        {
          "details": "The given gateway request ID `requestId` is invalid."
        }
      ],
      "ConfidentialFungibleTokenInvalidReceiver(address)": [
        {
          "details": "The given receiver `receiver` is invalid for transfers."
        }
      ],
      "ConfidentialFungibleTokenInvalidSender(address)": [
        {
          "details": "The given sender `sender` is invalid for transfers."
        }
      ],
      "ConfidentialFungibleTokenUnauthorizedCaller(address)": [
        {
          "details": "The given caller `caller` is not authorized for the current operation."
        }
      ],
      "ConfidentialFungibleTokenUnauthorizedSpender(address,address)": [
        {
          "details": "The given holder `holder` is not authorized to spend on behalf of `spender`."
        }
      ],
      "ConfidentialFungibleTokenUnauthorizedUseOfEncryptedAmount(bytes32,address)": [
        {
          "details": "The caller `user` does not have access to the encrypted amount `amount`. NOTE: Try using the equivalent transfer function with an input proof."
        }
      ],
      "ConfidentialFungibleTokenZeroBalance(address)": [
        {
          "details": "The holder `holder` is trying to send tokens but has a balance of 0."
        }
      ]
    },
    "events": {
      "AmountDisclosed(bytes32,uint64)": {
        "details": "Emitted when an encrypted amount is disclosed. Accounts with access to the encrypted amount `encryptedAmount` that is also accessible to this contract should be able to disclose the amount. This functionality is implementation specific."
      },
      "ConfidentialTransfer(address,address,bytes32)": {
        "details": "Emitted when a confidential transfer is made from `from` to `to` of encrypted amount `amount`."
      },
      "OperatorSet(address,address,uint48)": {
        "details": "Emitted when the expiration timestamp for an operator `operator` is updated for a given `holder`. The operator may move any amount of tokens on behalf of the holder until the timestamp `until`."
      }
    },
    "kind": "dev",
    "methods": {
      "confidentialBalanceOf(address)": {
        "details": "Returns the confidential balance of the account `account`."
      },
      "confidentialTotalSupply()": {
        "details": "Returns the confidential total supply of the token."
      },
      "confidentialTransfer(address,bytes32)": {
        "details": "Similar to {confidentialTransfer-address-externalEuint64-bytes} but without an input proof. The caller *must* already be allowed by ACL for the given `amount`."
      },
      "confidentialTransfer(address,bytes32,bytes)": {
        "details": "Transfers the encrypted amount `encryptedAmount` to `to` with the given input proof `inputProof`. Returns the encrypted amount that was actually transferred."
      },
      "confidentialTransferAndCall(address,bytes32,bytes)": {
        "details": "Similar to {confidentialTransfer-address-euint64} but with a callback to `to` after the transfer."
      },
      "confidentialTransferAndCall(address,bytes32,bytes,bytes)": {
        "details": "Similar to {confidentialTransfer-address-externalEuint64-bytes} but with a callback to `to` after the transfer. The callback is made to the {IConfidentialFungibleTokenReceiver-onConfidentialTransferReceived} function on the to address with the actual transferred amount (may differ from the given `encryptedAmount`) and the given data `data`."
      },
      "confidentialTransferFrom(address,address,bytes32)": {
        "details": "Similar to {confidentialTransferFrom-address-address-externalEuint64-bytes} but without an input proof. The caller *must* be already allowed by ACL for the given `amount`."
      },
      "confidentialTransferFrom(address,address,bytes32,bytes)": {
        "details": "Transfers the encrypted amount `encryptedAmount` from `from` to `to` with the given input proof `inputProof`. `msg.sender` must be either `from` or an operator for `from`. Returns the encrypted amount that was actually transferred."
      },
      "confidentialTransferFromAndCall(address,address,bytes32,bytes)": {
        "details": "Similar to {confidentialTransferFrom-address-address-euint64} but with a callback to `to` after the transfer."
      },
      "confidentialTransferFromAndCall(address,address,bytes32,bytes,bytes)": {
        "details": "Similar to {confidentialTransferFrom-address-address-externalEuint64-bytes} but with a callback to `to` after the transfer."
      },
      "decimals()": {
        "details": "Returns the number of decimals of the token. Recommended to be 6."
      },
      "discloseEncryptedAmount(bytes32)": {
        "details": "Discloses an encrypted amount `encryptedAmount` publicly via an {IConfidentialFungibleToken-AmountDisclosed} event. The caller and this contract must be authorized to use the encrypted amount on the ACL. NOTE: This is an asynchronous operation where the actual decryption happens off-chain and {finalizeDiscloseEncryptedAmount} is called with the result."
      },
      "finalizeDiscloseEncryptedAmount(uint256,uint64,bytes[])": {
        "details": "May only be called by the gateway contract. Finalizes a disclose encrypted amount request."
      },
      "isOperator(address,address)": {
        "details": "Returns true if `spender` is currently an operator for `holder`."
      },
      "name()": {
        "details": "Returns the name of the token."
      },
      "setOperator(address,uint48)": {
        "details": "Sets `operator` as an operator for `holder` until the timestamp `until`. NOTE: An operator may transfer any amount of tokens on behalf of a holder while approved."
      },
      "symbol()": {
        "details": "Returns the symbol of the token."
      },
      "tokenURI()": {
        "details": "Returns the token URI."
      }
    },
    "version": 1
  },
  "userdoc": {
    "errors": {
      "HandlesAlreadySavedForRequestID()": [
        {
          "notice": "Returned if some handles were already saved for corresponding ID."
        }
      ],
      "InvalidKMSSignatures()": [
        {
          "notice": "Returned if the returned KMS signatures are not valid."
        }
      ],
      "NoHandleFoundForRequestID()": [
        {
          "notice": "Returned if there was not handle found for the requested ID."
        }
      ],
      "UnsupportedHandleType()": [
        {
          "notice": "Returned if the requested handle to be decrypted is not of a supported type."
        }
      ]
    },
    "events": {
      "DecryptionFulfilled(uint256)": {
        "notice": "This event is emitted when requested decryption has been fulfilled."
      }
    },
    "kind": "user",
    "methods": {},
    "version": 1
  },
  "storageLayout": {
    "storage": [
      {
        "astId": 39365,
        "contract": "contracts/FHECSMM.sol:FHECSMM",
        "label": "_balances",
        "offset": 0,
        "slot": "0",
        "type": "t_mapping(t_address,t_userDefinedValueType(euint64)41656)"
      },
      {
        "astId": 39371,
        "contract": "contracts/FHECSMM.sol:FHECSMM",
        "label": "_operators",
        "offset": 0,
        "slot": "1",
        "type": "t_mapping(t_address,t_mapping(t_address,t_uint48))"
      },
      {
        "astId": 39376,
        "contract": "contracts/FHECSMM.sol:FHECSMM",
        "label": "_requestHandles",
        "offset": 0,
        "slot": "2",
        "type": "t_mapping(t_uint256,t_userDefinedValueType(euint64)41656)"
      },
      {
        "astId": 39379,
        "contract": "contracts/FHECSMM.sol:FHECSMM",
        "label": "_totalSupply",
        "offset": 0,
        "slot": "3",
        "type": "t_userDefinedValueType(euint64)41656"
      },
      {
        "astId": 39381,
        "contract": "contracts/FHECSMM.sol:FHECSMM",
        "label": "_name",
        "offset": 0,
        "slot": "4",
        "type": "t_string_storage"
      },
      {
        "astId": 39383,
        "contract": "contracts/FHECSMM.sol:FHECSMM",
        "label": "_symbol",
        "offset": 0,
        "slot": "5",
        "type": "t_string_storage"
      },
      {
        "astId": 39385,
        "contract": "contracts/FHECSMM.sol:FHECSMM",
        "label": "_tokenURI",
        "offset": 0,
        "slot": "6",
        "type": "t_string_storage"
      },
      {
        "astId": 40667,
        "contract": "contracts/FHECSMM.sol:FHECSMM",
        "label": "reserve0",
        "offset": 0,
        "slot": "7",
        "type": "t_userDefinedValueType(euint64)41656"
      },
      {
        "astId": 40670,
        "contract": "contracts/FHECSMM.sol:FHECSMM",
        "label": "reserve1",
        "offset": 0,
        "slot": "8",
        "type": "t_userDefinedValueType(euint64)41656"
      },
      {
        "astId": 40672,
        "contract": "contracts/FHECSMM.sol:FHECSMM",
        "label": "totalSupply",
        "offset": 0,
        "slot": "9",
        "type": "t_uint256"
      },
      {
        "astId": 40677,
        "contract": "contracts/FHECSMM.sol:FHECSMM",
        "label": "balanceOf",
        "offset": 0,
        "slot": "10",
        "type": "t_mapping(t_address,t_userDefinedValueType(euint64)41656)"
      }
    ],
    "types": {
      "t_address": {
        "encoding": "inplace",
        "label": "address",
        "numberOfBytes": "20"
      },
      "t_mapping(t_address,t_mapping(t_address,t_uint48))": {
        "encoding": "mapping",
        "key": "t_address",
        "label": "mapping(address => mapping(address => uint48))",
        "numberOfBytes": "32",
        "value": "t_mapping(t_address,t_uint48)"
      },
      "t_mapping(t_address,t_uint48)": {
        "encoding": "mapping",
        "key": "t_address",
        "label": "mapping(address => uint48)",
        "numberOfBytes": "32",
        "value": "t_uint48"
      },
      "t_mapping(t_address,t_userDefinedValueType(euint64)41656)": {
        "encoding": "mapping",
        "key": "t_address",
        "label": "mapping(address => euint64)",
        "numberOfBytes": "32",
        "value": "t_userDefinedValueType(euint64)41656"
      },
      "t_mapping(t_uint256,t_userDefinedValueType(euint64)41656)": {
        "encoding": "mapping",
        "key": "t_uint256",
        "label": "mapping(uint256 => euint64)",
        "numberOfBytes": "32",
        "value": "t_userDefinedValueType(euint64)41656"
      },
      "t_string_storage": {
        "encoding": "bytes",
        "label": "string",
        "numberOfBytes": "32"
      },
      "t_uint256": {
        "encoding": "inplace",
        "label": "uint256",
        "numberOfBytes": "32"
      },
      "t_uint48": {
        "encoding": "inplace",
        "label": "uint48",
        "numberOfBytes": "6"
      },
      "t_userDefinedValueType(euint64)41656": {
        "encoding": "inplace",
        "label": "euint64",
        "numberOfBytes": "32"
      }
    }
  }
}