{
  "address": "0x16761d1eE4F39139593e0706E00D103f2435a0eb",
  "abi": [
    {
      "inputs": [
        {
          "internalType": "string",
          "name": "name",
          "type": "string"
        },
        {
          "internalType": "string",
          "name": "symbol",
          "type": "string"
        }
      ],
      "stateMutability": "nonpayable",
      "type": "constructor"
    },
    {
      "inputs": [
        {
          "internalType": "uint256",
          "name": "requestId",
          "type": "uint256"
        }
      ],
      "name": "ConfidentialFungibleTokenInvalidGatewayRequest",
      "type": "error"
    },
    {
      "inputs": [
        {
          "internalType": "address",
          "name": "receiver",
          "type": "address"
        }
      ],
      "name": "ConfidentialFungibleTokenInvalidReceiver",
      "type": "error"
    },
    {
      "inputs": [
        {
          "internalType": "address",
          "name": "sender",
          "type": "address"
        }
      ],
      "name": "ConfidentialFungibleTokenInvalidSender",
      "type": "error"
    },
    {
      "inputs": [
        {
          "internalType": "address",
          "name": "caller",
          "type": "address"
        }
      ],
      "name": "ConfidentialFungibleTokenUnauthorizedCaller",
      "type": "error"
    },
    {
      "inputs": [
        {
          "internalType": "address",
          "name": "holder",
          "type": "address"
        },
        {
          "internalType": "address",
          "name": "spender",
          "type": "address"
        }
      ],
      "name": "ConfidentialFungibleTokenUnauthorizedSpender",
      "type": "error"
    },
    {
      "inputs": [
        {
          "internalType": "euint64",
          "name": "amount",
          "type": "bytes32"
        },
        {
          "internalType": "address",
          "name": "user",
          "type": "address"
        }
      ],
      "name": "ConfidentialFungibleTokenUnauthorizedUseOfEncryptedAmount",
      "type": "error"
    },
    {
      "inputs": [
        {
          "internalType": "address",
          "name": "holder",
          "type": "address"
        }
      ],
      "name": "ConfidentialFungibleTokenZeroBalance",
      "type": "error"
    },
    {
      "inputs": [],
      "name": "HandlesAlreadySavedForRequestID",
      "type": "error"
    },
    {
      "inputs": [],
      "name": "InvalidKMSSignatures",
      "type": "error"
    },
    {
      "inputs": [],
      "name": "NoHandleFoundForRequestID",
      "type": "error"
    },
    {
      "inputs": [],
      "name": "UnsupportedHandleType",
      "type": "error"
    },
    {
      "anonymous": false,
      "inputs": [
        {
          "indexed": true,
          "internalType": "euint64",
          "name": "encryptedAmount",
          "type": "bytes32"
        },
        {
          "indexed": false,
          "internalType": "uint64",
          "name": "amount",
          "type": "uint64"
        }
      ],
      "name": "AmountDisclosed",
      "type": "event"
    },
    {
      "anonymous": false,
      "inputs": [
        {
          "indexed": true,
          "internalType": "address",
          "name": "from",
          "type": "address"
        },
        {
          "indexed": true,
          "internalType": "address",
          "name": "to",
          "type": "address"
        },
        {
          "indexed": true,
          "internalType": "euint64",
          "name": "amount",
          "type": "bytes32"
        }
      ],
      "name": "ConfidentialTransfer",
      "type": "event"
    },
    {
      "anonymous": false,
      "inputs": [
        {
          "indexed": true,
          "internalType": "uint256",
          "name": "requestID",
          "type": "uint256"
        }
      ],
      "name": "DecryptionFulfilled",
      "type": "event"
    },
    {
      "anonymous": false,
      "inputs": [
        {
          "indexed": true,
          "internalType": "address",
          "name": "holder",
          "type": "address"
        },
        {
          "indexed": true,
          "internalType": "address",
          "name": "operator",
          "type": "address"
        },
        {
          "indexed": false,
          "internalType": "uint48",
          "name": "until",
          "type": "uint48"
        }
      ],
      "name": "OperatorSet",
      "type": "event"
    },
    {
      "inputs": [
        {
          "internalType": "address",
          "name": "from",
          "type": "address"
        },
        {
          "internalType": "externalEuint64",
          "name": "inputEuint64",
          "type": "bytes32"
        },
        {
          "internalType": "bytes",
          "name": "inputProof",
          "type": "bytes"
        }
      ],
      "name": "burn",
      "outputs": [],
      "stateMutability": "nonpayable",
      "type": "function"
    },
    {
      "inputs": [
        {
          "internalType": "address",
          "name": "account",
          "type": "address"
        }
      ],
      "name": "confidentialBalanceOf",
      "outputs": [
        {
          "internalType": "euint64",
          "name": "",
          "type": "bytes32"
        }
      ],
      "stateMutability": "view",
      "type": "function"
    },
    {
      "inputs": [],
      "name": "confidentialTotalSupply",
      "outputs": [
        {
          "internalType": "euint64",
          "name": "",
          "type": "bytes32"
        }
      ],
      "stateMutability": "view",
      "type": "function"
    },
    {
      "inputs": [
        {
          "internalType": "address",
          "name": "to",
          "type": "address"
        },
        {
          "internalType": "externalEuint64",
          "name": "encryptedAmount",
          "type": "bytes32"
        },
        {
          "internalType": "bytes",
          "name": "inputProof",
          "type": "bytes"
        }
      ],
      "name": "confidentialTransfer",
      "outputs": [
        {
          "internalType": "euint64",
          "name": "",
          "type": "bytes32"
        }
      ],
      "stateMutability": "nonpayable",
      "type": "function"
    },
    {
      "inputs": [
        {
          "internalType": "address",
          "name": "to",
          "type": "address"
        },
        {
          "internalType": "euint64",
          "name": "amount",
          "type": "bytes32"
        }
      ],
      "name": "confidentialTransfer",
      "outputs": [
        {
          "internalType": "euint64",
          "name": "",
          "type": "bytes32"
        }
      ],
      "stateMutability": "nonpayable",
      "type": "function"
    },
    {
      "inputs": [
        {
          "internalType": "address",
          "name": "to",
          "type": "address"
        },
        {
          "internalType": "euint64",
          "name": "amount",
          "type": "bytes32"
        },
        {
          "internalType": "bytes",
          "name": "data",
          "type": "bytes"
        }
      ],
      "name": "confidentialTransferAndCall",
      "outputs": [
        {
          "internalType": "euint64",
          "name": "transferred",
          "type": "bytes32"
        }
      ],
      "stateMutability": "nonpayable",
      "type": "function"
    },
    {
      "inputs": [
        {
          "internalType": "address",
          "name": "to",
          "type": "address"
        },
        {
          "internalType": "externalEuint64",
          "name": "encryptedAmount",
          "type": "bytes32"
        },
        {
          "internalType": "bytes",
          "name": "inputProof",
          "type": "bytes"
        },
        {
          "internalType": "bytes",
          "name": "data",
          "type": "bytes"
        }
      ],
      "name": "confidentialTransferAndCall",
      "outputs": [
        {
          "internalType": "euint64",
          "name": "transferred",
          "type": "bytes32"
        }
      ],
      "stateMutability": "nonpayable",
      "type": "function"
    },
    {
      "inputs": [
        {
          "internalType": "address",
          "name": "from",
          "type": "address"
        },
        {
          "internalType": "address",
          "name": "to",
          "type": "address"
        },
        {
          "internalType": "externalEuint64",
          "name": "encryptedAmount",
          "type": "bytes32"
        },
        {
          "internalType": "bytes",
          "name": "inputProof",
          "type": "bytes"
        }
      ],
      "name": "confidentialTransferFrom",
      "outputs": [
        {
          "internalType": "euint64",
          "name": "transferred",
          "type": "bytes32"
        }
      ],
      "stateMutability": "nonpayable",
      "type": "function"
    },
    {
      "inputs": [
        {
          "internalType": "address",
          "name": "from",
          "type": "address"
        },
        {
          "internalType": "address",
          "name": "to",
          "type": "address"
        },
        {
          "internalType": "euint64",
          "name": "amount",
          "type": "bytes32"
        }
      ],
      "name": "confidentialTransferFrom",
      "outputs": [
        {
          "internalType": "euint64",
          "name": "transferred",
          "type": "bytes32"
        }
      ],
      "stateMutability": "nonpayable",
      "type": "function"
    },
    {
      "inputs": [
        {
          "internalType": "address",
          "name": "from",
          "type": "address"
        },
        {
          "internalType": "address",
          "name": "to",
          "type": "address"
        },
        {
          "internalType": "externalEuint64",
          "name": "encryptedAmount",
          "type": "bytes32"
        },
        {
          "internalType": "bytes",
          "name": "inputProof",
          "type": "bytes"
        },
        {
          "internalType": "bytes",
          "name": "data",
          "type": "bytes"
        }
      ],
      "name": "confidentialTransferFromAndCall",
      "outputs": [
        {
          "internalType": "euint64",
          "name": "transferred",
          "type": "bytes32"
        }
      ],
      "stateMutability": "nonpayable",
      "type": "function"
    },
    {
      "inputs": [
        {
          "internalType": "address",
          "name": "from",
          "type": "address"
        },
        {
          "internalType": "address",
          "name": "to",
          "type": "address"
        },
        {
          "internalType": "euint64",
          "name": "amount",
          "type": "bytes32"
        },
        {
          "internalType": "bytes",
          "name": "data",
          "type": "bytes"
        }
      ],
      "name": "confidentialTransferFromAndCall",
      "outputs": [
        {
          "internalType": "euint64",
          "name": "transferred",
          "type": "bytes32"
        }
      ],
      "stateMutability": "nonpayable",
      "type": "function"
    },
    {
      "inputs": [],
      "name": "decimals",
      "outputs": [
        {
          "internalType": "uint8",
          "name": "",
          "type": "uint8"
        }
      ],
      "stateMutability": "view",
      "type": "function"
    },
    {
      "inputs": [
        {
          "internalType": "euint64",
          "name": "encryptedAmount",
          "type": "bytes32"
        }
      ],
      "name": "discloseEncryptedAmount",
      "outputs": [],
      "stateMutability": "nonpayable",
      "type": "function"
    },
    {
      "inputs": [
        {
          "internalType": "uint256",
          "name": "requestId",
          "type": "uint256"
        },
        {
          "internalType": "uint64",
          "name": "amount",
          "type": "uint64"
        },
        {
          "internalType": "bytes[]",
          "name": "signatures",
          "type": "bytes[]"
        }
      ],
      "name": "finalizeDiscloseEncryptedAmount",
      "outputs": [],
      "stateMutability": "nonpayable",
      "type": "function"
    },
    {
      "inputs": [
        {
          "internalType": "address",
          "name": "holder",
          "type": "address"
        },
        {
          "internalType": "address",
          "name": "spender",
          "type": "address"
        }
      ],
      "name": "isOperator",
      "outputs": [
        {
          "internalType": "bool",
          "name": "",
          "type": "bool"
        }
      ],
      "stateMutability": "view",
      "type": "function"
    },
    {
      "inputs": [
        {
          "internalType": "address",
          "name": "to",
          "type": "address"
        },
        {
          "internalType": "externalEuint64",
          "name": "inputEuint64",
          "type": "bytes32"
        },
        {
          "internalType": "bytes",
          "name": "inputProof",
          "type": "bytes"
        }
      ],
      "name": "mint",
      "outputs": [],
      "stateMutability": "nonpayable",
      "type": "function"
    },
    {
      "inputs": [],
      "name": "name",
      "outputs": [
        {
          "internalType": "string",
          "name": "",
          "type": "string"
        }
      ],
      "stateMutability": "view",
      "type": "function"
    },
    {
      "inputs": [
        {
          "internalType": "address",
          "name": "operator",
          "type": "address"
        },
        {
          "internalType": "uint48",
          "name": "until",
          "type": "uint48"
        }
      ],
      "name": "setOperator",
      "outputs": [],
      "stateMutability": "nonpayable",
      "type": "function"
    },
    {
      "inputs": [],
      "name": "symbol",
      "outputs": [
        {
          "internalType": "string",
          "name": "",
          "type": "string"
        }
      ],
      "stateMutability": "view",
      "type": "function"
    },
    {
      "inputs": [],
      "name": "tokenURI",
      "outputs": [
        {
          "internalType": "string",
          "name": "",
          "type": "string"
        }
      ],
      "stateMutability": "view",
      "type": "function"
    }
  ],
  "transactionHash": "0x4ecb171e4193d1ad3e3fe0814e290c406b96f46eb917108ae36b7a0cfb318e08",
  "args": [
    "Zama",
    "ZAMA"
  ],
  "numDeployments": 1,
  "solcInputHash": "4f3746422a8cb1a1db11137b35393cb7",
  "bytecode": "0x608060405234801561000f575f5ffd5b506040516126b53803806126b583398101604081905261002e916102d8565b60408051602081019091525f815282908290600461004c84826103c1565b50600561005983826103c1565b50600661006682826103c1565b5050505061015761007b6101a360201b60201c565b80517fed8d60e34876f751cc8b014c560745351147d9de11b9347c854e881b128ea60080546001600160a01b03199081166001600160a01b039384161790915560208301517fed8d60e34876f751cc8b014c560745351147d9de11b9347c854e881b128ea6018054831691841691909117905560408301517fed8d60e34876f751cc8b014c560745351147d9de11b9347c854e881b128ea6028054831691841691909117905560608301517fed8d60e34876f751cc8b014c560745351147d9de11b9347c854e881b128ea6038054909216921691909117905550565b7f5ea69329017273582817d320489fbd94f775580e90c092699ca6f3d12fdf7d0080546001600160a01b03191673a02cda4ca3a71d7c46997716f4283aa851c28812179055505061047b565b604080516080810182525f808252602082018190529181018290526060810191909152506040805160808101825273687820221192c5b662b25367f70076a37bc79b6c815273848b0066793bcc60346da1f49049357399b8d5956020820152731364cbbf2cdf5032c47d8226a6f6fbd2afcdacac9181019190915273bc91f3dad1a5f19f8390c400196e58073b6a0bc4606082015290565b634e487b7160e01b5f52604160045260245ffd5b5f82601f83011261025e575f5ffd5b81516001600160401b038111156102775761027761023b565b604051601f8201601f19908116603f011681016001600160401b03811182821017156102a5576102a561023b565b6040528181528382016020018510156102bc575f5ffd5b8160208501602083015e5f918101602001919091529392505050565b5f5f604083850312156102e9575f5ffd5b82516001600160401b038111156102fe575f5ffd5b61030a8582860161024f565b602085015190935090506001600160401b03811115610327575f5ffd5b6103338582860161024f565b9150509250929050565b600181811c9082168061035157607f821691505b60208210810361036f57634e487b7160e01b5f52602260045260245ffd5b50919050565b601f8211156103bc57805f5260205f20601f840160051c8101602085101561039a5750805b601f840160051c820191505b818110156103b9575f81556001016103a6565b50505b505050565b81516001600160401b038111156103da576103da61023b565b6103ee816103e8845461033d565b84610375565b6020601f821160018114610420575f83156104095750848201515b5f19600385901b1c1916600184901b1784556103b9565b5f84815260208120601f198516915b8281101561044f578785015182556020948501946001909201910161042f565b508482101561046c57868401515f19600387901b60f8161c191681555b50505050600190811b01905550565b61222d806104885f395ff3fe608060405234801561000f575f5ffd5b5060043610610163575f3560e01c806395d89b41116100c7578063d4febb961161007d578063de64211911610063578063de642119146102c5578063e064b9bb146102d8578063eb3155b5146102eb575f5ffd5b8063d4febb961461029f578063d747d608146102b2575f5ffd5b8063b6483bab116100ad578063b6483bab14610266578063c535803c14610279578063c7b8a75e1461028c575f5ffd5b806395d89b411461023b578063b6363cf214610243575f5ffd5b80633c130d901161011c5780635409522711610102578063540952271461020b5780635bebed7e146102135780637279e26414610226575f5ffd5b80633c130d90146101f0578063537d3c50146101f8575f5ffd5b8063313ce5671161014c578063313ce567146101a6578063344ff101146101b557806334c45743146101dd575f5ffd5b806306fdde03146101675780632fb74e6214610185575b5f5ffd5b61016f6102fe565b60405161017c9190611a89565b60405180910390f35b610198610193366004611af4565b61038e565b60405190815260200161017c565b6040516006815260200161017c565b6101986101c3366004611b4a565b6001600160a01b03165f9081526020819052604090205490565b6101986101eb366004611b63565b6103e1565b61016f61048a565b610198610206366004611af4565b610499565b600354610198565b610198610221366004611bfc565b6104fb565b610239610234366004611c69565b61054f565b005b61016f6105dc565b610256610251366004611dba565b6105eb565b604051901515815260200161017c565b610239610274366004611af4565b61063d565b610239610287366004611de2565b610691565b61019861029a366004611df9565b610747565b6102396102ad366004611e63565b6107ea565b6102396102c0366004611af4565b6107f9565b6101986102d3366004611ea2565b610845565b6101986102e6366004611df9565b6108a1565b6101986102f9366004611f2b565b610926565b60606004805461030d90611f65565b80601f016020809104026020016040519081016040528092919081815260200182805461033990611f65565b80156103845780601f1061035b57610100808354040283529160200191610384565b820191905f5260205f20905b81548152906001019060200180831161036757829003601f168201915b5050505050905090565b5f6103d833866103d38787878080601f0160208091040260200160405190810160405280939291908181526020018383808284375f920191909152506109c592505050565b6109d2565b95945050505050565b5f6103ec88336105eb565b8833909161042557604051631ae7729b60e11b81526001600160a01b039283166004820152911660248201526044015b60405180910390fd5b5050610472888861046b8989898080601f0160208091040260200160405190810160405280939291908181526020018383808284375f920191909152506109c592505050565b8686610a52565b905061047e8133610aa2565b50979650505050505050565b60606006805461030d90611f65565b5f6104a48433610ab4565b843390916104d75760405163118f6e5360e31b815260048101929092526001600160a01b0316602482015260440161041c565b50506104e63386868686610a52565b90506104f28133610aa2565b50949350505050565b5f6105068233610ab4565b823390916105395760405163118f6e5360e31b815260048101929092526001600160a01b0316602482015260440161041c565b50506105463384846109d2565b90505b92915050565b6105598382610abf565b5f83815260026020526040902054838161058957604051630ab5f57d60e01b815260040161041c91815260200190565b5060405167ffffffffffffffff8416815281907f83bbbc07896439e5d950a6cead04cbc676180af7a61cecf43f5296475057f5719060200160405180910390a25050505f90815260026020526040812055565b60606005805461030d90611f65565b5f816001600160a01b0316836001600160a01b031614806105465750506001600160a01b039182165f90815260016020908152604080832093909416825291909152205465ffffffffffff1642111590565b5f61067d8484848080601f0160208091040260200160405190810160405280939291908181526020018383808284375f920191909152506109c592505050565b90506106898582610b26565b505050505050565b61069b8133610ab4565b80156106ac57506106ac8130610ab4565b813390916106df5760405163118f6e5360e31b815260048101929092526001600160a01b0316602482015260440161041c565b50506040805160018082528183019092525f916020808301908036833701905050905081815f8151811061071557610715611f9d565b60209081029190910101525f61073282631c9e789960e21b610b67565b5f908152600260205260409020929092555050565b5f6107528433610ab4565b843390916107855760405163118f6e5360e31b815260048101929092526001600160a01b0316602482015260440161041c565b505061079186336105eb565b863390916107c557604051631ae7729b60e11b81526001600160a01b0392831660048201529116602482015260440161041c565b50506107d48686868686610a52565b90506107e08133610aa2565b5095945050505050565b6107f5338383610b73565b5050565b5f6108398484848080601f0160208091040260200160405190810160405280939291908181526020018383808284375f920191909152506109c592505050565b90506106898582610bea565b5f61088a338861046b8989898080601f0160208091040260200160405190810160405280939291908181526020018383808284375f920191909152506109c592505050565b90506108968133610aa2565b509695505050505050565b5f6108ac86336105eb565b863390916108e057604051631ae7729b60e11b81526001600160a01b0392831660048201529116602482015260440161041c565b50506107d486866103d38787878080601f0160208091040260200160405190810160405280939291908181526020018383808284375f920191909152506109c592505050565b5f6109318233610ab4565b823390916109645760405163118f6e5360e31b815260048101929092526001600160a01b0316602482015260440161041c565b505061097084336105eb565b843390916109a457604051631ae7729b60e11b81526001600160a01b0392831660048201529116602482015260440161041c565b50506109b18484846109d2565b90506109bd8133610aa2565b509392505050565b5f61054683836005610c2b565b5f806001600160a01b038516610a0757604051631a9bbf8b60e11b81526001600160a01b03909116600482015260240161041c565b505f6001600160a01b038416610a3c57604051636e41946d60e11b81526001600160a01b03909116600482015260240161041c565b50610a48848484610d38565b90505b9392505050565b5f5f610a5f8787876109d2565b9050610a81610a72338989858989610f10565b82610a7c5f611014565b61102a565b9150610a978688610a928486611036565b610d38565b505095945050505050565b5f610aad8383611064565b5090919050565b5f61054683836110d8565b5f610ac983611164565b90505f610ad68284611235565b905080610af65760405163cf6c44e960e01b815260040160405180910390fd5b60405184907f1af0453083661051f6e56e5c070792320652e612154bf9af8637bb1e7655b99d905f90a250505050565b5f806001600160a01b038416610b5b57604051636e41946d60e11b81526001600160a01b03909116600482015260240161041c565b506105465f8484610d38565b5f61054683835f61133d565b6001600160a01b038381165f81815260016020908152604080832094871680845294825291829020805465ffffffffffff191665ffffffffffff871690811790915591519182527f921a218a75d18e8ec5704851e6b234a85725b21a2521ce889622c35dedc1fa12910160405180910390a3505050565b5f806001600160a01b038416610c1f57604051631a9bbf8b60e11b81526001600160a01b03909116600482015260240161041c565b50610546835f84610d38565b7fed8d60e34876f751cc8b014c560745351147d9de11b9347c854e881b128ea6015460405163196d0b9b60e01b81525f915f5160206122015f395f51905f52916001600160a01b039091169063196d0b9b90610c91908890339089908990600401611fe5565b6020604051808303815f875af1158015610cad573d5f5f3e3d5ffd5b505050506040513d601f19601f82011682018060405250810190610cd1919061201b565b8154604051630f8e573b60e21b8152600481018390523360248201529193506001600160a01b031690633e395cec906044015f604051808303815f87803b158015610d1a575f5ffd5b505af1158015610d2c573d5f5f3e3d5ffd5b50505050509392505050565b5f80806001600160a01b038616610d6e57610d5560035485611476565b9092509050610d63816114c0565b506003819055610df2565b6001600160a01b0386165f908152602081905260409020548681610db157604051636b8830d760e11b81526001600160a01b03909116600482015260240161041c565b50610dbc81866114cf565b9093509150610dca826114c0565b50610dd582886114fa565b50506001600160a01b0386165f9081526020819052604090208190555b610e008285610a7c5f611014565b92506001600160a01b038516610e3257610e1c60035484611036565b9050610e27816114c0565b506003819055610e86565b6001600160a01b0385165f90815260208190526040902054610e549084611505565b9050610e5f816114c0565b50610e6a81866114fa565b506001600160a01b0385165f9081526020819052604090208190555b6001600160a01b03861615610ea157610e9f83876114fa565b505b6001600160a01b03851615610ebc57610eba83866114fa565b505b610ec5836114c0565b5082856001600160a01b0316876001600160a01b03167f67500e8d0ed826d2194f514dd0d8124f35648ab6e3fb5e6ed867134cffe661e960405160405180910390a450509392505050565b5f6001600160a01b0385163b15610ffd576040516346083bfd60e01b81526001600160a01b038616906346083bfd90610f55908a908a90899089908990600401612032565b6020604051808303815f875af1925050508015610f8f575060408051601f3d908101601f19168201909252610f8c9181019061201b565b60015b610ff6573d808015610fbc576040519150601f19603f3d011682016040523d82523d5f602084013e610fc1565b606091505b5080515f03610fee57604051636e41946d60e11b81526001600160a01b038716600482015260240161041c565b805181602001fd5b905061100a565b6110076001611533565b90505b9695505050505050565b5f6105498267ffffffffffffffff16600561154a565b5f610a488484846115ec565b5f82611048576110455f611014565b92505b81611059576110565f611014565b91505b61054683835f611679565b5f5160206122015f395f51905f528054604051630f8e573b60e21b8152600481018590526001600160a01b03848116602483015290911690633e395cec906044015b5f604051808303815f87803b1580156110bd575f5ffd5b505af11580156110cf573d5f5f3e3d5ffd5b50505050505050565b5f805f5160206122015f395f51905f5280546040516382027b6d60e01b8152600481018790526001600160a01b0386811660248301529293509116906382027b6d90604401602060405180830381865afa158015611138573d5f5f3e3d5ffd5b505050506040513d601f19601f8201168201806040525081019061115c9190612087565b949350505050565b5f8181527f5ea69329017273582817d320489fbd94f775580e90c092699ca6f3d12fdf7d0260205260408120546060917f5ea69329017273582817d320489fbd94f775580e90c092699ca6f3d12fdf7d009190036111d55760405163d66ca67560e01b815260040160405180910390fd5b5f8381526002820160209081526040918290208054835181840281018401909452808452909183018282801561122857602002820191905f5260205f20905b815481526020019060010190808311611214575b5050505050915050919050565b5f6024816112428561173f565b90505f8167ffffffffffffffff81111561125e5761125e611c24565b6040519080825280601f01601f191660200182016040528015611288576020820181803683370190505b509050818360208301377fed8d60e34876f751cc8b014c560745351147d9de11b9347c854e881b128ea60254604051632c027b1360e21b81525f5160206122015f395f51905f52916001600160a01b03169063b009ec4c906112f2908a9086908b906004016120e0565b6020604051808303815f875af115801561130e573d5f5f3e3d5ffd5b505050506040513d601f19601f820116820180604052508101906113329190612087565b979650505050505050565b7f5ea69329017273582817d320489fbd94f775580e90c092699ca6f3d12fdf7d01545f5160206122015f395f51905f528054604051637d6e912360e11b81527f5ea69329017273582817d320489fbd94f775580e90c092699ca6f3d12fdf7d0092916001600160a01b03169063fadd2246906113bd90899060040161216a565b5f604051808303815f87803b1580156113d4575f5ffd5b505af11580156113e6573d5f5f3e3d5ffd5b50508354604051633263b83b60e01b81526001600160a01b039091169250633263b83b9150869061141f9087908b908b9060040161217c565b5f604051808303818588803b158015611436575f5ffd5b505af1158015611448573d5f5f3e3d5ffd5b505050505061145783876117ec565b600182018054905f611468836121c1565b919050555050509392505050565b5f8083611491576114876001611533565b91508290506114b9565b5f61149c8585611505565b90506114a8818661187f565b92506114b583828761102a565b9150505b9250929050565b5f6114cb82306118ad565b5090565b5f5f6114db848461187f565b91506114f1826114eb8686611036565b8661102a565b90509250929050565b5f610aad83836118ad565b5f82611517576115145f611014565b92505b81611528576115255f611014565b91505b61054683835f6118f3565b5f61054982611542575f611545565b60015b60ff165f5b7fed8d60e34876f751cc8b014c560745351147d9de11b9347c854e881b128ea60154604051639cd07acb60e01b81525f915f5160206122015f395f51905f52916001600160a01b0390911690639cd07acb906115ac90879087906004016121d9565b6020604051808303815f875af11580156115c8573d5f5f3e3d5ffd5b505050506040513d601f19601f8201168201806040525081019061115c919061201b565b5f805f5160206122015f395f51905f526001810154604051637702dcff60e01b81526004810188905260248101879052604481018690529192506001600160a01b031690637702dcff906064016020604051808303815f875af1158015611655573d5f5f3e3d5ffd5b505050506040513d601f19601f820116820180604052508101906103d8919061201b565b5f5f821561168c5750600160f81b61168f565b505f5b7fed8d60e34876f751cc8b014c560745351147d9de11b9347c854e881b128ea601546040516303056db360e31b815260048101879052602481018690526001600160f81b0319831660448201525f5160206122015f395f51905f52916001600160a01b03169063182b6d98906064015b6020604051808303815f875af115801561171b573d5f5f3e3d5ffd5b505050506040513d601f19601f8201168201806040525081019061100a919061201b565b80515f9081805b828110156117e0575f85828151811061176157611761611f9d565b6020026020010151601e6020811061177b5761177b611f9d565b1a605381111561178d5761178d611fb1565b905060098160538111156117a3576117a3611fb1565b60ff1610156117be576117b76020846121ed565b92506117d7565b60405163ce54a8d160e01b815260040160405180910390fd5b50600101611746565b5061115c6020826121ed565b5f8281527f5ea69329017273582817d320489fbd94f775580e90c092699ca6f3d12fdf7d0260205260409020547f5ea69329017273582817d320489fbd94f775580e90c092699ca6f3d12fdf7d00901561185957604051633f06d22b60e01b815260040160405180910390fd5b5f8381526002820160209081526040909120835161187992850190611a07565b50505050565b5f826118915761188e5f611014565b92505b816118a25761189f5f611014565b91505b61054683835f61197d565b5f5160206122015f395f51905f528054604051635ca4b5b160e11b8152600481018590526001600160a01b0384811660248301529091169063b9496b62906044016110a6565b5f5f82156119065750600160f81b611909565b505f5b7fed8d60e34876f751cc8b014c560745351147d9de11b9347c854e881b128ea6015460405163022f65e760e31b815260048101879052602481018690526001600160f81b0319831660448201525f5160206122015f395f51905f52916001600160a01b03169063117b2f38906064016116ff565b5f5f82156119905750600160f81b611993565b505f5b7fed8d60e34876f751cc8b014c560745351147d9de11b9347c854e881b128ea60154604051631391547f60e01b815260048101879052602481018690526001600160f81b0319831660448201525f5160206122015f395f51905f52916001600160a01b031690631391547f906064016116ff565b828054828255905f5260205f20908101928215611a40579160200282015b82811115611a40578251825591602001919060010190611a25565b506114cb9291505b808211156114cb575f8155600101611a48565b5f81518084528060208401602086015e5f602082860101526020601f19601f83011685010191505092915050565b602081525f6105466020830184611a5b565b80356001600160a01b0381168114611ab1575f5ffd5b919050565b5f5f83601f840112611ac6575f5ffd5b50813567ffffffffffffffff811115611add575f5ffd5b6020830191508360208285010111156114b9575f5ffd5b5f5f5f5f60608587031215611b07575f5ffd5b611b1085611a9b565b935060208501359250604085013567ffffffffffffffff811115611b32575f5ffd5b611b3e87828801611ab6565b95989497509550505050565b5f60208284031215611b5a575f5ffd5b61054682611a9b565b5f5f5f5f5f5f5f60a0888a031215611b79575f5ffd5b611b8288611a9b565b9650611b9060208901611a9b565b955060408801359450606088013567ffffffffffffffff811115611bb2575f5ffd5b611bbe8a828b01611ab6565b909550935050608088013567ffffffffffffffff811115611bdd575f5ffd5b611be98a828b01611ab6565b989b979a50959850939692959293505050565b5f5f60408385031215611c0d575f5ffd5b611c1683611a9b565b946020939093013593505050565b634e487b7160e01b5f52604160045260245ffd5b604051601f8201601f1916810167ffffffffffffffff81118282101715611c6157611c61611c24565b604052919050565b5f5f5f60608486031215611c7b575f5ffd5b83359250602084013567ffffffffffffffff81168114611c99575f5ffd5b9150604084013567ffffffffffffffff811115611cb4575f5ffd5b8401601f81018613611cc4575f5ffd5b803567ffffffffffffffff811115611cde57611cde611c24565b8060051b611cee60208201611c38565b91825260208184018101929081019089841115611d09575f5ffd5b6020850192505b83831015611dab57823567ffffffffffffffff811115611d2e575f5ffd5b8501603f81018b13611d3e575f5ffd5b602081013567ffffffffffffffff811115611d5b57611d5b611c24565b611d6e601f8201601f1916602001611c38565b8181526040838301018d1015611d82575f5ffd5b816040840160208301375f60208383010152808552505050602082019150602083019250611d10565b80955050505050509250925092565b5f5f60408385031215611dcb575f5ffd5b611dd483611a9b565b91506114f160208401611a9b565b5f60208284031215611df2575f5ffd5b5035919050565b5f5f5f5f5f60808688031215611e0d575f5ffd5b611e1686611a9b565b9450611e2460208701611a9b565b935060408601359250606086013567ffffffffffffffff811115611e46575f5ffd5b611e5288828901611ab6565b969995985093965092949392505050565b5f5f60408385031215611e74575f5ffd5b611e7d83611a9b565b9150602083013565ffffffffffff81168114611e97575f5ffd5b809150509250929050565b5f5f5f5f5f5f60808789031215611eb7575f5ffd5b611ec087611a9b565b955060208701359450604087013567ffffffffffffffff811115611ee2575f5ffd5b611eee89828a01611ab6565b909550935050606087013567ffffffffffffffff811115611f0d575f5ffd5b611f1989828a01611ab6565b979a9699509497509295939492505050565b5f5f5f60608486031215611f3d575f5ffd5b611f4684611a9b565b9250611f5460208501611a9b565b929592945050506040919091013590565b600181811c90821680611f7957607f821691505b602082108103611f9757634e487b7160e01b5f52602260045260245ffd5b50919050565b634e487b7160e01b5f52603260045260245ffd5b634e487b7160e01b5f52602160045260245ffd5b60548110611fe157634e487b7160e01b5f52602160045260245ffd5b9052565b8481526001600160a01b0384166020820152608060408201525f61200c6080830185611a5b565b90506103d86060830184611fc5565b5f6020828403121561202b575f5ffd5b5051919050565b6001600160a01b03861681526001600160a01b038516602082015283604082015260806060820152816080820152818360a08301375f81830160a090810191909152601f909201601f19160101949350505050565b5f60208284031215612097575f5ffd5b81518015158114610a4b575f5ffd5b5f8151808452602084019350602083015f5b828110156120d65781518652602095860195909101906001016120b8565b5093949350505050565b606081525f6120f260608301866120a6565b82810360208401526121048186611a5b565b9050828103604084015280845180835260208301915060208160051b840101602087015f5b8381101561215b57601f19868403018552612145838351611a5b565b6020958601959093509190910190600101612129565b50909998505050505050505050565b602081525f61054660208301846120a6565b838152606060208201525f61219460608301856120a6565b905063ffffffff60e01b83166040830152949350505050565b634e487b7160e01b5f52601160045260245ffd5b5f600182016121d2576121d26121ad565b5060010190565b82815260408101610a4b6020830184611fc5565b80820180821115610549576105496121ad56feed8d60e34876f751cc8b014c560745351147d9de11b9347c854e881b128ea600a164736f6c634300081b000a",
  "devdoc": {
    "errors": {
      "ConfidentialFungibleTokenInvalidGatewayRequest(uint256)": [
        {
          "details": "The given gateway request ID `requestId` is invalid."
        }
      ],
      "ConfidentialFungibleTokenInvalidReceiver(address)": [
        {
          "details": "The given receiver `receiver` is invalid for transfers."
        }
      ],
      "ConfidentialFungibleTokenInvalidSender(address)": [
        {
          "details": "The given sender `sender` is invalid for transfers."
        }
      ],
      "ConfidentialFungibleTokenUnauthorizedCaller(address)": [
        {
          "details": "The given caller `caller` is not authorized for the current operation."
        }
      ],
      "ConfidentialFungibleTokenUnauthorizedSpender(address,address)": [
        {
          "details": "The given holder `holder` is not authorized to spend on behalf of `spender`."
        }
      ],
      "ConfidentialFungibleTokenUnauthorizedUseOfEncryptedAmount(bytes32,address)": [
        {
          "details": "The caller `user` does not have access to the encrypted amount `amount`. NOTE: Try using the equivalent transfer function with an input proof."
        }
      ],
      "ConfidentialFungibleTokenZeroBalance(address)": [
        {
          "details": "The holder `holder` is trying to send tokens but has a balance of 0."
        }
      ]
    },
    "events": {
      "AmountDisclosed(bytes32,uint64)": {
        "details": "Emitted when an encrypted amount is disclosed. Accounts with access to the encrypted amount `encryptedAmount` that is also accessible to this contract should be able to disclose the amount. This functionality is implementation specific."
      },
      "ConfidentialTransfer(address,address,bytes32)": {
        "details": "Emitted when a confidential transfer is made from `from` to `to` of encrypted amount `amount`."
      },
      "OperatorSet(address,address,uint48)": {
        "details": "Emitted when the expiration timestamp for an operator `operator` is updated for a given `holder`. The operator may move any amount of tokens on behalf of the holder until the timestamp `until`."
      }
    },
    "kind": "dev",
    "methods": {
      "burn(address,bytes32,bytes)": {
        "params": {
          "from": "The address to burn tokens from",
          "inputEuint64": "The encrypted amount of tokens to burn",
          "inputProof": "The proof of the encrypted amount"
        }
      },
      "confidentialBalanceOf(address)": {
        "details": "Returns the confidential balance of the account `account`."
      },
      "confidentialTotalSupply()": {
        "details": "Returns the confidential total supply of the token."
      },
      "confidentialTransfer(address,bytes32)": {
        "details": "Similar to {confidentialTransfer-address-externalEuint64-bytes} but without an input proof. The caller *must* already be allowed by ACL for the given `amount`."
      },
      "confidentialTransfer(address,bytes32,bytes)": {
        "details": "Transfers the encrypted amount `encryptedAmount` to `to` with the given input proof `inputProof`. Returns the encrypted amount that was actually transferred."
      },
      "confidentialTransferAndCall(address,bytes32,bytes)": {
        "details": "Similar to {confidentialTransfer-address-euint64} but with a callback to `to` after the transfer."
      },
      "confidentialTransferAndCall(address,bytes32,bytes,bytes)": {
        "details": "Similar to {confidentialTransfer-address-externalEuint64-bytes} but with a callback to `to` after the transfer. The callback is made to the {IConfidentialFungibleTokenReceiver-onConfidentialTransferReceived} function on the to address with the actual transferred amount (may differ from the given `encryptedAmount`) and the given data `data`."
      },
      "confidentialTransferFrom(address,address,bytes32)": {
        "details": "Similar to {confidentialTransferFrom-address-address-externalEuint64-bytes} but without an input proof. The caller *must* be already allowed by ACL for the given `amount`."
      },
      "confidentialTransferFrom(address,address,bytes32,bytes)": {
        "details": "Transfers the encrypted amount `encryptedAmount` from `from` to `to` with the given input proof `inputProof`. `msg.sender` must be either `from` or an operator for `from`. Returns the encrypted amount that was actually transferred."
      },
      "confidentialTransferFromAndCall(address,address,bytes32,bytes)": {
        "details": "Similar to {confidentialTransferFrom-address-address-euint64} but with a callback to `to` after the transfer."
      },
      "confidentialTransferFromAndCall(address,address,bytes32,bytes,bytes)": {
        "details": "Similar to {confidentialTransferFrom-address-address-externalEuint64-bytes} but with a callback to `to` after the transfer."
      },
      "decimals()": {
        "details": "Returns the number of decimals of the token. Recommended to be 6."
      },
      "discloseEncryptedAmount(bytes32)": {
        "details": "Discloses an encrypted amount `encryptedAmount` publicly via an {IConfidentialFungibleToken-AmountDisclosed} event. The caller and this contract must be authorized to use the encrypted amount on the ACL. NOTE: This is an asynchronous operation where the actual decryption happens off-chain and {finalizeDiscloseEncryptedAmount} is called with the result."
      },
      "finalizeDiscloseEncryptedAmount(uint256,uint64,bytes[])": {
        "details": "May only be called by the gateway contract. Finalizes a disclose encrypted amount request."
      },
      "isOperator(address,address)": {
        "details": "Returns true if `spender` is currently an operator for `holder`."
      },
      "mint(address,bytes32,bytes)": {
        "params": {
          "inputEuint64": "The encrypted amount of tokens to mint",
          "inputProof": "The proof of the encrypted amount",
          "to": "The address to mint tokens to"
        }
      },
      "name()": {
        "details": "Returns the name of the token."
      },
      "setOperator(address,uint48)": {
        "details": "Sets `operator` as an operator for `holder` until the timestamp `until`. NOTE: An operator may transfer any amount of tokens on behalf of a holder while approved."
      },
      "symbol()": {
        "details": "Returns the symbol of the token."
      },
      "tokenURI()": {
        "details": "Returns the token URI."
      }
    },
    "version": 1
  },
  "userdoc": {
    "errors": {
      "HandlesAlreadySavedForRequestID()": [
        {
          "notice": "Returned if some handles were already saved for corresponding ID."
        }
      ],
      "InvalidKMSSignatures()": [
        {
          "notice": "Returned if the returned KMS signatures are not valid."
        }
      ],
      "NoHandleFoundForRequestID()": [
        {
          "notice": "Returned if there was not handle found for the requested ID."
        }
      ],
      "UnsupportedHandleType()": [
        {
          "notice": "Returned if the requested handle to be decrypted is not of a supported type."
        }
      ]
    },
    "events": {
      "DecryptionFulfilled(uint256)": {
        "notice": "This event is emitted when requested decryption has been fulfilled."
      }
    },
    "kind": "user",
    "methods": {
      "burn(address,bytes32,bytes)": {
        "notice": "Burn tokens from an address"
      },
      "mint(address,bytes32,bytes)": {
        "notice": "Mint tokens to an address"
      }
    },
    "version": 1
  },
  "storageLayout": {
    "storage": [
      {
        "astId": 39365,
        "contract": "contracts/FHEToken.sol:FHEToken",
        "label": "_balances",
        "offset": 0,
        "slot": "0",
        "type": "t_mapping(t_address,t_userDefinedValueType(euint64)41656)"
      },
      {
        "astId": 39371,
        "contract": "contracts/FHEToken.sol:FHEToken",
        "label": "_operators",
        "offset": 0,
        "slot": "1",
        "type": "t_mapping(t_address,t_mapping(t_address,t_uint48))"
      },
      {
        "astId": 39376,
        "contract": "contracts/FHEToken.sol:FHEToken",
        "label": "_requestHandles",
        "offset": 0,
        "slot": "2",
        "type": "t_mapping(t_uint256,t_userDefinedValueType(euint64)41656)"
      },
      {
        "astId": 39379,
        "contract": "contracts/FHEToken.sol:FHEToken",
        "label": "_totalSupply",
        "offset": 0,
        "slot": "3",
        "type": "t_userDefinedValueType(euint64)41656"
      },
      {
        "astId": 39381,
        "contract": "contracts/FHEToken.sol:FHEToken",
        "label": "_name",
        "offset": 0,
        "slot": "4",
        "type": "t_string_storage"
      },
      {
        "astId": 39383,
        "contract": "contracts/FHEToken.sol:FHEToken",
        "label": "_symbol",
        "offset": 0,
        "slot": "5",
        "type": "t_string_storage"
      },
      {
        "astId": 39385,
        "contract": "contracts/FHEToken.sol:FHEToken",
        "label": "_tokenURI",
        "offset": 0,
        "slot": "6",
        "type": "t_string_storage"
      }
    ],
    "types": {
      "t_address": {
        "encoding": "inplace",
        "label": "address",
        "numberOfBytes": "20"
      },
      "t_mapping(t_address,t_mapping(t_address,t_uint48))": {
        "encoding": "mapping",
        "key": "t_address",
        "label": "mapping(address => mapping(address => uint48))",
        "numberOfBytes": "32",
        "value": "t_mapping(t_address,t_uint48)"
      },
      "t_mapping(t_address,t_uint48)": {
        "encoding": "mapping",
        "key": "t_address",
        "label": "mapping(address => uint48)",
        "numberOfBytes": "32",
        "value": "t_uint48"
      },
      "t_mapping(t_address,t_userDefinedValueType(euint64)41656)": {
        "encoding": "mapping",
        "key": "t_address",
        "label": "mapping(address => euint64)",
        "numberOfBytes": "32",
        "value": "t_userDefinedValueType(euint64)41656"
      },
      "t_mapping(t_uint256,t_userDefinedValueType(euint64)41656)": {
        "encoding": "mapping",
        "key": "t_uint256",
        "label": "mapping(uint256 => euint64)",
        "numberOfBytes": "32",
        "value": "t_userDefinedValueType(euint64)41656"
      },
      "t_string_storage": {
        "encoding": "bytes",
        "label": "string",
        "numberOfBytes": "32"
      },
      "t_uint256": {
        "encoding": "inplace",
        "label": "uint256",
        "numberOfBytes": "32"
      },
      "t_uint48": {
        "encoding": "inplace",
        "label": "uint48",
        "numberOfBytes": "6"
      },
      "t_userDefinedValueType(euint64)41656": {
        "encoding": "inplace",
        "label": "euint64",
        "numberOfBytes": "32"
      }
    }
  }
}